{
  "_format": "hh-sol-artifact-1",
  "contractName": "EscrowRegistry",
  "sourceName": "contracts/EscrowRegistry.sol",
  "abi": [
    {
      "anonymous": false,
      "inputs": [
        {
          "indexed": true,
          "internalType": "address",
          "name": "deployer",
          "type": "address"
        },
        {
          "indexed": true,
          "internalType": "address",
          "name": "newContract",
          "type": "address"
        }
      ],
      "name": "ContractDeployed",
      "type": "event"
    },
    {
      "inputs": [
        {
          "internalType": "address",
          "name": "_arbiter",
          "type": "address"
        },
        {
          "internalType": "address",
          "name": "_beneficiary",
          "type": "address"
        },
        {
          "internalType": "uint256",
          "name": "_feeBps",
          "type": "uint256"
        }
      ],
      "name": "deployEscrowContract",
      "outputs": [],
      "stateMutability": "payable",
      "type": "function"
    },
    {
      "inputs": [
        {
          "internalType": "uint256",
          "name": "",
          "type": "uint256"
        }
      ],
      "name": "deployedContractAddresses",
      "outputs": [
        {
          "internalType": "address",
          "name": "",
          "type": "address"
        }
      ],
      "stateMutability": "view",
      "type": "function"
    },
    {
      "inputs": [],
      "name": "getEscrowAddresses",
      "outputs": [
        {
          "internalType": "address[]",
          "name": "",
          "type": "address[]"
        }
      ],
      "stateMutability": "view",
      "type": "function"
    }
  ],
  "bytecode": "0x608060405234801561001057600080fd5b5061104d806100206000396000f3fe6080604052600436106100345760003560e01c80635eecc9d91461003957806391f7123c14610064578063b02fb948146100a1575b600080fd5b34801561004557600080fd5b5061004e6100bd565b60405161005b919061038a565b60405180910390f35b34801561007057600080fd5b5061008b600480360381019061008691906103e7565b61014b565b6040516100989190610423565b60405180910390f35b6100bb60048036038101906100b6919061046a565b61018a565b005b6060600080548060200260200160405190810160405280929190818152602001828054801561014157602002820191906000526020600020905b8160009054906101000a900473ffffffffffffffffffffffffffffffffffffffff1673ffffffffffffffffffffffffffffffffffffffff16815260200190600101908083116100f7575b5050505050905090565b6000818154811061015b57600080fd5b906000526020600020016000915054906101000a900473ffffffffffffffffffffffffffffffffffffffff1681565b6000348484338560405161019d9061028d565b6101aa94939291906104cc565b6040518091039082f09050801580156101c7573d6000803e3d6000fd5b5090506000819080600181540180825580915050600190039060005260206000200160009091909190916101000a81548173ffffffffffffffffffffffffffffffffffffffff021916908373ffffffffffffffffffffffffffffffffffffffff1602179055508073ffffffffffffffffffffffffffffffffffffffff163373ffffffffffffffffffffffffffffffffffffffff167f33c981baba081f8fd2c52ac6ad1ea95b6814b4376640f55689051f658472968860405160405180910390a350505050565b610b068061051283390190565b600081519050919050565b600082825260208201905092915050565b6000819050602082019050919050565b600073ffffffffffffffffffffffffffffffffffffffff82169050919050565b60006102f1826102c6565b9050919050565b610301816102e6565b82525050565b600061031383836102f8565b60208301905092915050565b6000602082019050919050565b60006103378261029a565b61034181856102a5565b935061034c836102b6565b8060005b8381101561037d5781516103648882610307565b975061036f8361031f565b925050600181019050610350565b5085935050505092915050565b600060208201905081810360008301526103a4818461032c565b905092915050565b600080fd5b6000819050919050565b6103c4816103b1565b81146103cf57600080fd5b50565b6000813590506103e1816103bb565b92915050565b6000602082840312156103fd576103fc6103ac565b5b600061040b848285016103d2565b91505092915050565b61041d816102e6565b82525050565b60006020820190506104386000830184610414565b92915050565b610447816102e6565b811461045257600080fd5b50565b6000813590506104648161043e565b92915050565b600080600060608486031215610483576104826103ac565b5b600061049186828701610455565b93505060206104a286828701610455565b92505060406104b3868287016103d2565b9150509250925092565b6104c6816103b1565b82525050565b60006080820190506104e16000830187610414565b6104ee6020830186610414565b6104fb6040830185610414565b61050860608301846104bd565b9594505050505056fe6080604052604051610b06380380610b0683398181016040528101906100259190610197565b836000806101000a81548173ffffffffffffffffffffffffffffffffffffffff021916908373ffffffffffffffffffffffffffffffffffffffff16021790555082600160006101000a81548173ffffffffffffffffffffffffffffffffffffffff021916908373ffffffffffffffffffffffffffffffffffffffff1602179055508060048190555081600260006101000a81548173ffffffffffffffffffffffffffffffffffffffff021916908373ffffffffffffffffffffffffffffffffffffffff16021790555034600381905550505050506101fe565b600080fd5b600073ffffffffffffffffffffffffffffffffffffffff82169050919050565b600061012e82610103565b9050919050565b61013e81610123565b811461014957600080fd5b50565b60008151905061015b81610135565b92915050565b6000819050919050565b61017481610161565b811461017f57600080fd5b50565b6000815190506101918161016b565b92915050565b600080600080608085870312156101b1576101b06100fe565b5b60006101bf8782880161014c565b94505060206101d08782880161014c565b93505060406101e18782880161014c565b92505060606101f287828801610182565b91505092959194509250565b6108f98061020d6000396000f3fe608060405234801561001057600080fd5b50600436106100885760003560e01c806347a7846f1161005b57806347a7846f146100f1578063a68b91ab1461010f578063c7c4ff4614610132578063fe25e00a1461015057610088565b806312424e3f1461008d57806324a9d8531461009757806328f371aa146100b557806338af3eed146100d3575b600080fd5b61009561016e565b005b61009f6103f0565b6040516100ac9190610532565b60405180910390f35b6100bd6103f6565b6040516100ca9190610568565b60405180910390f35b6100db610409565b6040516100e891906105c4565b60405180910390f35b6100f961042f565b6040516101069190610532565b60405180910390f35b610117610435565b604051610129969594939291906105df565b60405180910390f35b61013a6104cf565b60405161014791906105c4565b60405180910390f35b6101586104f5565b60405161016591906105c4565b60405180910390f35b60008054906101000a900473ffffffffffffffffffffffffffffffffffffffff1673ffffffffffffffffffffffffffffffffffffffff163373ffffffffffffffffffffffffffffffffffffffff16146101c657600080fd5b60004790506000612710600454836101de919061066f565b6101e891906106e0565b9050600081836101f89190610711565b905060008060009054906101000a900473ffffffffffffffffffffffffffffffffffffffff1673ffffffffffffffffffffffffffffffffffffffff168360405161024190610776565b60006040518083038185875af1925050503d806000811461027e576040519150601f19603f3d011682016040523d82523d6000602084013e610283565b606091505b505090506000600160009054906101000a900473ffffffffffffffffffffffffffffffffffffffff1673ffffffffffffffffffffffffffffffffffffffff16836040516102cf90610776565b60006040518083038185875af1925050503d806000811461030c576040519150601f19603f3d011682016040523d82523d6000602084013e610311565b606091505b5050905081610355576040517f08c379a000000000000000000000000000000000000000000000000000000000815260040161034c906107e8565b60405180910390fd5b80610395576040517f08c379a000000000000000000000000000000000000000000000000000000000815260040161038c9061087a565b60405180910390fd5b7f1527ad5e6cfbfe249bfd6f9571cbfee0ce4a12335089fa9c6efeab04fec1f7a383856040516103c692919061089a565b60405180910390a16001600560006101000a81548160ff0219169083151502179055505050505050565b60045481565b600560009054906101000a900460ff1681565b600160009054906101000a900473ffffffffffffffffffffffffffffffffffffffff1681565b60035481565b60008060008060008060008054906101000a900473ffffffffffffffffffffffffffffffffffffffff16600160009054906101000a900473ffffffffffffffffffffffffffffffffffffffff16600260009054906101000a900473ffffffffffffffffffffffffffffffffffffffff16600354600454600560009054906101000a900460ff16955095509550955095509550909192939495565b600260009054906101000a900473ffffffffffffffffffffffffffffffffffffffff1681565b60008054906101000a900473ffffffffffffffffffffffffffffffffffffffff1681565b6000819050919050565b61052c81610519565b82525050565b60006020820190506105476000830184610523565b92915050565b60008115159050919050565b6105628161054d565b82525050565b600060208201905061057d6000830184610559565b92915050565b600073ffffffffffffffffffffffffffffffffffffffff82169050919050565b60006105ae82610583565b9050919050565b6105be816105a3565b82525050565b60006020820190506105d960008301846105b5565b92915050565b600060c0820190506105f460008301896105b5565b61060160208301886105b5565b61060e60408301876105b5565b61061b6060830186610523565b6106286080830185610523565b61063560a0830184610559565b979650505050505050565b7f4e487b7100000000000000000000000000000000000000000000000000000000600052601160045260246000fd5b600061067a82610519565b915061068583610519565b925082820261069381610519565b915082820484148315176106aa576106a9610640565b5b5092915050565b7f4e487b7100000000000000000000000000000000000000000000000000000000600052601260045260246000fd5b60006106eb82610519565b91506106f683610519565b925082610706576107056106b1565b5b828204905092915050565b600061071c82610519565b915061072783610519565b925082820390508181111561073f5761073e610640565b5b92915050565b600081905092915050565b50565b6000610760600083610745565b915061076b82610750565b600082019050919050565b600061078182610753565b9150819050919050565b600082825260208201905092915050565b7f4661696c656420746f2073656e6420417262697465722073686172652e000000600082015250565b60006107d2601d8361078b565b91506107dd8261079c565b602082019050919050565b60006020820190508181036000830152610801816107c5565b9050919050565b7f4661696c656420746f2073656e642042656e656669636961727920736861726560008201527f2e00000000000000000000000000000000000000000000000000000000000000602082015250565b600061086460218361078b565b915061086f82610808565b604082019050919050565b6000602082019050818103600083015261089381610857565b9050919050565b60006040820190506108af6000830185610523565b6108bc6020830184610523565b939250505056fea2646970667358221220755778f09d0aa572b9e235473412246e4fdfe9790ecd9d639e0b7157d8647c9f64736f6c63430008130033a2646970667358221220de7de0ead2334111acc6be4bc83b106b891200bd50388df5a6ebd3c8fd2dc0ea64736f6c63430008130033",
  "linkReferences": {},
  "deployedLinkReferences": {}
}