{
  "_format": "hh-sol-artifact-1",
  "contractName": "Escrow",
  "sourceName": "contracts/EscrowRegistry.sol",
  "abi": [
    {
      "inputs": [
        {
          "internalType": "address",
          "name": "_arbiter",
          "type": "address"
        },
        {
          "internalType": "address",
          "name": "_beneficiary",
          "type": "address"
        },
        {
          "internalType": "address",
          "name": "_depositor",
          "type": "address"
        },
        {
          "internalType": "uint256",
          "name": "_feeBps",
          "type": "uint256"
        }
      ],
      "stateMutability": "payable",
      "type": "constructor"
    },
    {
      "anonymous": false,
      "inputs": [
        {
          "indexed": false,
          "internalType": "uint256",
          "name": "beneficiaryAmount",
          "type": "uint256"
        },
        {
          "indexed": false,
          "internalType": "uint256",
          "name": "arbiterFee",
          "type": "uint256"
        }
      ],
      "name": "Approved",
      "type": "event"
    },
    {
      "inputs": [],
      "name": "approve",
      "outputs": [],
      "stateMutability": "nonpayable",
      "type": "function"
    },
    {
      "inputs": [],
      "name": "arbiter",
      "outputs": [
        {
          "internalType": "address",
          "name": "",
          "type": "address"
        }
      ],
      "stateMutability": "view",
      "type": "function"
    },
    {
      "inputs": [],
      "name": "beneficiary",
      "outputs": [
        {
          "internalType": "address",
          "name": "",
          "type": "address"
        }
      ],
      "stateMutability": "view",
      "type": "function"
    },
    {
      "inputs": [],
      "name": "depositor",
      "outputs": [
        {
          "internalType": "address",
          "name": "",
          "type": "address"
        }
      ],
      "stateMutability": "view",
      "type": "function"
    },
    {
      "inputs": [],
      "name": "escrowAmount",
      "outputs": [
        {
          "internalType": "uint256",
          "name": "",
          "type": "uint256"
        }
      ],
      "stateMutability": "view",
      "type": "function"
    },
    {
      "inputs": [],
      "name": "feeBps",
      "outputs": [
        {
          "internalType": "uint256",
          "name": "",
          "type": "uint256"
        }
      ],
      "stateMutability": "view",
      "type": "function"
    },
    {
      "inputs": [],
      "name": "getContractData",
      "outputs": [
        {
          "internalType": "address",
          "name": "",
          "type": "address"
        },
        {
          "internalType": "address",
          "name": "",
          "type": "address"
        },
        {
          "internalType": "address",
          "name": "",
          "type": "address"
        },
        {
          "internalType": "uint256",
          "name": "",
          "type": "uint256"
        },
        {
          "internalType": "uint256",
          "name": "",
          "type": "uint256"
        },
        {
          "internalType": "bool",
          "name": "",
          "type": "bool"
        }
      ],
      "stateMutability": "view",
      "type": "function"
    },
    {
      "inputs": [],
      "name": "isApproved",
      "outputs": [
        {
          "internalType": "bool",
          "name": "",
          "type": "bool"
        }
      ],
      "stateMutability": "view",
      "type": "function"
    }
  ],
  "bytecode": "0x6080604052604051610b06380380610b0683398181016040528101906100259190610197565b836000806101000a81548173ffffffffffffffffffffffffffffffffffffffff021916908373ffffffffffffffffffffffffffffffffffffffff16021790555082600160006101000a81548173ffffffffffffffffffffffffffffffffffffffff021916908373ffffffffffffffffffffffffffffffffffffffff1602179055508060048190555081600260006101000a81548173ffffffffffffffffffffffffffffffffffffffff021916908373ffffffffffffffffffffffffffffffffffffffff16021790555034600381905550505050506101fe565b600080fd5b600073ffffffffffffffffffffffffffffffffffffffff82169050919050565b600061012e82610103565b9050919050565b61013e81610123565b811461014957600080fd5b50565b60008151905061015b81610135565b92915050565b6000819050919050565b61017481610161565b811461017f57600080fd5b50565b6000815190506101918161016b565b92915050565b600080600080608085870312156101b1576101b06100fe565b5b60006101bf8782880161014c565b94505060206101d08782880161014c565b93505060406101e18782880161014c565b92505060606101f287828801610182565b91505092959194509250565b6108f98061020d6000396000f3fe608060405234801561001057600080fd5b50600436106100885760003560e01c806347a7846f1161005b57806347a7846f146100f1578063a68b91ab1461010f578063c7c4ff4614610132578063fe25e00a1461015057610088565b806312424e3f1461008d57806324a9d8531461009757806328f371aa146100b557806338af3eed146100d3575b600080fd5b61009561016e565b005b61009f6103f0565b6040516100ac9190610532565b60405180910390f35b6100bd6103f6565b6040516100ca9190610568565b60405180910390f35b6100db610409565b6040516100e891906105c4565b60405180910390f35b6100f961042f565b6040516101069190610532565b60405180910390f35b610117610435565b604051610129969594939291906105df565b60405180910390f35b61013a6104cf565b60405161014791906105c4565b60405180910390f35b6101586104f5565b60405161016591906105c4565b60405180910390f35b60008054906101000a900473ffffffffffffffffffffffffffffffffffffffff1673ffffffffffffffffffffffffffffffffffffffff163373ffffffffffffffffffffffffffffffffffffffff16146101c657600080fd5b60004790506000612710600454836101de919061066f565b6101e891906106e0565b9050600081836101f89190610711565b905060008060009054906101000a900473ffffffffffffffffffffffffffffffffffffffff1673ffffffffffffffffffffffffffffffffffffffff168360405161024190610776565b60006040518083038185875af1925050503d806000811461027e576040519150601f19603f3d011682016040523d82523d6000602084013e610283565b606091505b505090506000600160009054906101000a900473ffffffffffffffffffffffffffffffffffffffff1673ffffffffffffffffffffffffffffffffffffffff16836040516102cf90610776565b60006040518083038185875af1925050503d806000811461030c576040519150601f19603f3d011682016040523d82523d6000602084013e610311565b606091505b5050905081610355576040517f08c379a000000000000000000000000000000000000000000000000000000000815260040161034c906107e8565b60405180910390fd5b80610395576040517f08c379a000000000000000000000000000000000000000000000000000000000815260040161038c9061087a565b60405180910390fd5b7f1527ad5e6cfbfe249bfd6f9571cbfee0ce4a12335089fa9c6efeab04fec1f7a383856040516103c692919061089a565b60405180910390a16001600560006101000a81548160ff0219169083151502179055505050505050565b60045481565b600560009054906101000a900460ff1681565b600160009054906101000a900473ffffffffffffffffffffffffffffffffffffffff1681565b60035481565b60008060008060008060008054906101000a900473ffffffffffffffffffffffffffffffffffffffff16600160009054906101000a900473ffffffffffffffffffffffffffffffffffffffff16600260009054906101000a900473ffffffffffffffffffffffffffffffffffffffff16600354600454600560009054906101000a900460ff16955095509550955095509550909192939495565b600260009054906101000a900473ffffffffffffffffffffffffffffffffffffffff1681565b60008054906101000a900473ffffffffffffffffffffffffffffffffffffffff1681565b6000819050919050565b61052c81610519565b82525050565b60006020820190506105476000830184610523565b92915050565b60008115159050919050565b6105628161054d565b82525050565b600060208201905061057d6000830184610559565b92915050565b600073ffffffffffffffffffffffffffffffffffffffff82169050919050565b60006105ae82610583565b9050919050565b6105be816105a3565b82525050565b60006020820190506105d960008301846105b5565b92915050565b600060c0820190506105f460008301896105b5565b61060160208301886105b5565b61060e60408301876105b5565b61061b6060830186610523565b6106286080830185610523565b61063560a0830184610559565b979650505050505050565b7f4e487b7100000000000000000000000000000000000000000000000000000000600052601160045260246000fd5b600061067a82610519565b915061068583610519565b925082820261069381610519565b915082820484148315176106aa576106a9610640565b5b5092915050565b7f4e487b7100000000000000000000000000000000000000000000000000000000600052601260045260246000fd5b60006106eb82610519565b91506106f683610519565b925082610706576107056106b1565b5b828204905092915050565b600061071c82610519565b915061072783610519565b925082820390508181111561073f5761073e610640565b5b92915050565b600081905092915050565b50565b6000610760600083610745565b915061076b82610750565b600082019050919050565b600061078182610753565b9150819050919050565b600082825260208201905092915050565b7f4661696c656420746f2073656e6420417262697465722073686172652e000000600082015250565b60006107d2601d8361078b565b91506107dd8261079c565b602082019050919050565b60006020820190508181036000830152610801816107c5565b9050919050565b7f4661696c656420746f2073656e642042656e656669636961727920736861726560008201527f2e00000000000000000000000000000000000000000000000000000000000000602082015250565b600061086460218361078b565b915061086f82610808565b604082019050919050565b6000602082019050818103600083015261089381610857565b9050919050565b60006040820190506108af6000830185610523565b6108bc6020830184610523565b939250505056fea2646970667358221220c3416f30b4e3770fc55064fc2b40919f84b6ece4cd2b759b0b1dd8b8eeb1fd4f64736f6c63430008130033",
  "linkReferences": {},
  "deployedLinkReferences": {}
}